:100000000A128A11FC2F00308A000408840A820731
:0E0010000034B43400345A3400340034003468
:100D6600831603131419B82EB92EB32E08000A12CF
:100D76008A11B3260A128A11831603131114080066
:100D86000A128A11B3260A128A1183160313111541
:100D960008000A128A11B3260A128A1170088312F1
:100DA60003139300080083120313140820389400D9
:100DB6001408F03908389400831603131408803891
:100DC60094009101831203132008A4002108A500B2
:100DD6002208A6002308A70002300310A40DA50DC3
:100DE600A60DA70DFF3E031DF02E2708F3002608CB
:100DF600F2002508F1002408F0000030F7003D302D
:100E0600F6000930F5000030F4000A128A111527A1
:100E16000A128A117008FF3E831603139300871582
:100E2600071608000030FC000030FB000030FA0016
:100E36000030F90073087204710470040319242F3A
:100E4600252F722FFD01FD0A352F0130F800031002
:100E5600F00DF10DF20DF30DF80B2A2F0130F8000D
:100E66007808FD07F31F382F392F282F0130F80097
:100E76000310F90DFA0DFB0DFC0DF80B3B2F730853
:100E86007702031D502F72087602031D502F71083A
:100E96007502031D502F70087402031C532F542F24
:100EA600632F7008F4027108031C710FF5027208B3
:100EB600031C720FF6027308031C730FF7027914F2
:100EC60001300310F30CF20CF10CF00CFF3E031D85
:100ED600642F0130FD02031D712F722F392F7C08FC
:100EE600F3007B08F2007A08F1007908F0000800A8
:100EF6000430831603138500033086008316031718
:100F060088011830831603138700103083120313E9
:100F160090008613FF30AB000030AC00AD01AE018F
:100F26000030A3000130A2008630A100A030A0004E
:100F36000A128A11D6260A128A110A128A11BA26AA
:100F46000A128A113030F0000030F1000A128A11BC
:100F5600CC260A128A11831203132C08F1002B08DF
:100F6600F0000A128A11CC260A128A110A128A1174
:100F7600C3260A128A11033083120313AA008A3089
:100F8600A9005530A800A80BC62FA90BC62FAA0B7F
:100F9600C62F0A128A11BA260A128A113030F000B8
:100FA6000030F1000A128A11CC260A128A11831225
:100FB60003132E08F1002D08F0000A128A11CC2620
:100FC6000A128A110A128A11C3260A128A110330DA
:100FD60083120313AA008A30A9005530A800A80B73
:100FE600F22FA90BF22FAA0BF22FA02F0A128A11A9
:0A0FF600002883010A128A117B2FE4
:08400000FF3FFF3FFF3FFF3FC0
:04400E00E428FF3F64
:00000001FF
